:0300000002002ECD
:03000B000200A24E
:03001B0002025886
:10002B000202AC758170758911758CFB758A8F75A1
:10003B008D0B758BDB75CDFB75CC1D7C347D1278F0
:10004B00007E0075310F75320F754100754250758A
:10005B004350754450754558754658754758754803
:10006B0058C2C1C2C0C2B2D2D4D2D37E00E47D008A
:10007B00C2D4C2D3D2AFD2A9D2ABD2ADD28CD28E94
:10008B00D2CABE02FDA29092A350F70200997FE163
:10009B000E75411802008DC0D0C0E075800F308006
:1000AB000C30811730822230832D0201CEC284C2E4
:1000BB0085D286D28730802D02012EC284C285D292
:1000CB0086D28730812D02013CC284C285D286D272
:1000DB008730822D02014AC284C285D286D28730F4
:1000EB00832D02015EC284D285C286D28730802DD9
:1000FB000201C5C284D285C286D287308122020119
:10010B0084C284D285C286D28730825502017CC2DA
:10011B0084D285C286D2873083330201740201C236
:10012B000201BFC284D285C286D2873080220201EF
:10013B00CBC284D285C286D2873081550201B4C22C
:10014B0084D285C286D28730823F0201AC0201BCC9
:10015B000201C8C284D285C286D2873083230201B2
:10016B00A479007532000201D479017532080201BD
:10017B00D479027532100201D47903753218020159
:0B018B00D479047532200201D47905FC
:100196007532280201D479067532300201D4790706
:1001A6007532380201D479087532400201D47909D2
:1001B6007532480201D402024D02024D0202380293
:1001C600024D02024D02024D75310F02024DE5311C
:1001D600B40F740201DCE9F531B80007E532F545E4
:1001E600E9C4FBB80107E532F546E92BFBB802077F
:1001F600E532F547E9C4FAB8030AE532F548E92AD3
:10020600FA02020E0802024D7800EC6AF4B4FF1FEF
:10021600ED6BF4B4FF19BE000A7E017541087FE15B
:1002260002024D7E007F00D2A47541000202380210
:1002360002387A007B007800754558754658754730
:100246005875485802024D758C00758A00D0E0D06A
:10025600D032C0D0C0E0BE00030202A1BE011E75AE
:100266004108BE0303754118BF96127A007B0078D9
:1002760000754558754658754758754858DF1CC26D
:10028600A4BE010FBE03030202A10EC2A475411053
:100296000202A17E047541200202A1758D0B758BA9
:1002A600DBD0E0D0D032C0D0C0E0D2D4D2D3C2C1ED
:1002B600C2C0C2B2900313D2D47C08EC2440F8EE3C
:1002C600B4070474007E0026937B051392C1C2C056
:0D02D600D2C0DBF7DCE590030CEE937A0854
:1002E3001392C1C2C0D2C0DAF7C2B2D2B2C2B20E46
:1002F300C2D40202F8C2D3C2D4BE0408B2A275CDDE
:10030300FB75CC1DD0E0D0D0327FBFDFEFF7FBFD14
:1003130019161616161619001D191D1D1D1D180078
:1003230019161E1D1B17100019161E181E1619006C
:100333001D191515101D1D00101717111E16190074
:100343001916171116161900101E1E181E1E1E0050
:100353001916161916161900191616181E1619004D
:100363001F1F1F1F1F1F1F001F1F1F1F1F1F1000E7
:00000001FF
