:0300000002000EED
:10000B0002004C758901758CFF758AFFC2C0C2C195
:10001B00C2B2D2D4D2D37E0074007D00753858752D
:10002B003958753A58753B58753C50753D50753E6F
:10003B0050753F50C2D3C2D4D2A9D2AFD28C0200DA
:10004B0049C0D0C0E0D2D4D2D3C2C1C2C0C2B2C2A6
:10005B00A3EDFC900137BC000302007DEEB4070456
:10006B0074007E00937B051392C1C2C0D2C0DBF734
:10007B00DCEA9000E7EEB4070474007E00253893A9
:10008B007B051392C1C2C0D2C0DBF774089DFC90F4
:10009B000137EEB4070474007E00937B051392C105
:1000AB00C2C0D2C0DBF7DCEA9000E0EE937A081313
:1000BB0092C1C2C0D2C0DAF7C2B2D2B2C2B20E0D76
:1000CB00C2D4C2D30200D2758CFF758AFFD0E0D0A8
:1000DB00D00200DF327FBFDFEFF7FBFD10161616E5
:1000EB00161610001D191D1D1D1D1800101E1E10AB
:1000FB0017171000101E1E101E1E10001D191515AF
:10010B00101D1D00101717101E1E100010171710B2
:10011B0016161000101E1E181E1E1E00101616108E
:10012B0016161000101616101E1E10001F1F1F1F74
:0C013B001F1F1F001F1F1F1F1F1F100091
:00000001FF
