:0300000002002ECD
:03000B000200B040
:03001B000202647A
:10002B00020278758170758911758CFB758A8F75D5
:10003B008D0B758BDB75CDFB75CC8F7C347D12787E
:10004B00007E0075310F75320F753858753958753C
:10005B003A58753B58753C50753D50753E50753F41
:10006B0050C2C1C2C0C2B2D2D4D2D37E00E47D0092
:10007B00C2D4C2D3D2A9D2ABD2ADD2AAD2AFD28C78
:10008B00D28ED2CABE000302008FD2A4DFF6B2A377
:10009B00BE010CBE030302008F0EC2A402008F0E22
:1000AB00B2A202008FC0D0C0E0C2A375800F308017
:1000BB000C30811730822230832D0201DEC284C2C4
:1000CB0085D286D28730802D02013EC284C285D272
:1000DB0086D28730812D02014CC284C285D286D252
:1000EB008730822D02015AC284C285D286D28730D4
:1000FB00832D02016EC284D285C286D28730802DB9
:10010B000201D5C284D285C286D2873081220201F8
:10011B0094C284D285C286D28730825502018CC2AA
:10012B0084D285C286D2873083330201840201D206
:10013B000201CFC284D285C286D2873080220201CF
:10014B00DBC284D285C286D2873081550201C4C2FC
:10015B0084D285C286D28730823F0201BC0201CC99
:10016B000201D8C284D285C286D287308323020192
:10017B00B479007532000201E4790175320802018D
:09018B00E479027532100201E46E
:1001940079037532180201E479047532200201E40E
:1001A40079057532280201E479067532300201E4DA
:1001B40079077532380201E479087532220201E4C4
:1001C40079097532480201E4020259020259020215
:1001D4004402025902025902025975310F020259AE
:1001E400E531B40F700201ECE9F531B80007E532EE
:1001F400F53BE9C4FBB80107E532F53AE92BFBB856
:100204000207E532F539E9C4FAB8030AE532F538EC
:10021400E92AFA02021E080202597800EC6AF4B4D0
:10022400FF1BED6BF4B4FF15C2A4BE00077E017F73
:10023400E10202597E007F00D2A302025902024465
:100244007A007B00780090036AE0F53BF53AF539D3
:10025400F538020259758D0B758BDBD0E0D0D032A6
:10026400C0D0C0E0BE010802026E7FE1020273D07A
:10027400E0D0D032C0D0C0E0D2D4D2D3C2C1C2C048
:10028400C2B2C2A3EDFC900362BC00030202A9EE59
:10029400B4070474007E00937B051392C1C2C0D2DC
:1002A400C0DBF7DCEA900312EEB407047E007400AE
:1002B4002538937B051392C1C2C0D2C0DBF7740703
:0D02C4009DFC900362EEB4070474007E0000
:1002D100937B051392C1C2C0D2C0DBF7DCEA900365
:1002E1000BEE937A081392C1C2C0D2C0DAF7C2B240
:1002F100D2B2C2B20E0DBD08027D00C2D3C2D47506
:10030100CDFB75CC8FD0E0D0D0327FBFDFEFF7FBD4
:10031100FD19161616161619001D191D1D1D1D187D
:100321000019161E191716190019161E111E161975
:10033100001D191515101D1D00191617191E161966
:1003410000191617191616190019161E181E1E1E49
:10035100001916161916161900191616191E16194E
:10036100001F1F1F1F1F1F1F001F1F1F1F1F1F10E9
:01037100008B
:00000001FF
