:0300000002002ECD
:03000B0002008F61
:03001300020243A3
:03001B0002025787
:10002B0002028D758911758CFB758A8F758D0B7519
:10003B008BDB75CDFB75CC8FD2A9D2ABD2ADD2AA4F
:10004B00D2AFD28CD28ED2CA7C347D1278007E0095
:10005B0075310F75320F90037BE0F538F539F53AB2
:10006B00F53B900373E0F53CF53DF53EF53FC2C122
:10007B00C2C0C2B2D2D4D2D37E00E47D00C2D4C2FD
:10008B00D302008CC0D0C0E0C2A375800F30800CAF
:10009B0030811730822230832D0201BDC284C2858C
:1000AB00D286D28730802D02011DC284C285D286B2
:1000BB00D28730812D02012BC284C285D286D28792
:1000CB0030822D020139C284C285D286D287308319
:1000DB002D02014DC284D285C286D28730802D027B
:1000EB0001B4C284D285C286D287308122020173C9
:1000FB00C284D285C286D28730825502016BC284FC
:10010B00D285C286D2873083330201630201B102EA
:10011B0001AEC284D285C286D2873080220201BA58
:10012B00C284D285C286D2873081550201A3C28494
:10013B00D285C286D28730823F02019B0201AB027D
:10014B0001B7C284D285C286D28730832302019342
:10015B0079007532000201C379017532080201C3BF
:10016B0079027532100201C379037532180201C38B
:10017B0079047532200201C379057532280201C357
:02018B007906F3
:10018D007532300201C379077532380201C379081F
:10019D007532220201C379097532480201C3020288
:1001AD0038020238020223020238020238020238F3
:1001BD0075310F020238E531B40F700201CBE9F54C
:1001CD0031B80007E532F53BE9C4FBB80107E5326C
:1001DD00F53AE92BFBB80207E532F539E9C4FAB86F
:1001ED00030AE532F538E92AFA0201FD0802023860
:1001FD007800EC6AF4B4FF1BED6BF4B4FF15C2A4E8
:10020D00BE00077E017FE10202387E007F00D2A38F
:10021D000202380202237A007B00780090037BE013
:10022D00F53BF53AF539F538020238758D0B758BBE
:10023D00DBD0E0D0D032C0D0C0E0BE010802024D0C
:10024D007FE1020252D0E0D0D032C0D0C0E0BE007B
:10025D0003020282D2A4DF1DC2A3BE010CBE0303A2
:10026D000202820EC2A40202820EB2A2758CFB752E
:10027D008A8F020282758CFB758A8FD0E0D0D032C6
:10028D00C0D0C0E0D2D4D2D3C2C1C2C0C2B2C2A308
:10029D00ED9DFC900373BC00030202BFEEB4070496
:1002AD0074007E00937B051392C1C2C0D2C0DBF7F0
:0F02BD00DCEA900323EEB40705E5382D7E0093AD
:1002CC007B051392C1C2C0D2C0DBF774089DFC90B1
:1002DC000373EEB4070474007E00937B051392C184
:1002EC00C2C0D2C0DBF7DCEA90031CEE937A081391
:1002FC0092C1C2C0D2C0DAF7C2B2D2B2C2B20E0D33
:10030C00BD08027D00C2D3C2D4758CFF758AFF3242
:10031C007FBFDFEFF7FBFD10161616161610001D2B
:10032C00191D1D1D1D1800101E1E10171710001072
:10033C001E1E101E1E10001D191515101D1D00105F
:10034C001717101E1E10001017171016161000107D
:10035C001E1E181E1E1E001016161016161000104B
:10036C001616101E1E10001F1F1F1F1F1F1F001F01
:07037C001F1F1F1F1F1000CF
:00000001FF
