:0300000002002ECD
:03000B0002008F61
:03001300020243A3
:03001B0002025787
:10002B00020287758911758CFB758A8F758D0B751F
:10003B008BDB75CDFB75CC8F7C347D1278007E000D
:10004B0075310F75320F753858753958753A5875B3
:10005B003B58753C50753D50753E50753F50C2C175
:10006B00C2C0C2B2D2D4D2D37E00E47D00C2D4C20D
:10007B00D3D2A9D2ABD2ADD2AAD2AFD28CD28ED29E
:10008B00CA02008CC0D0C0E0C2A375800F30800CB8
:10009B0030811730822230832D0201BDC284C2858C
:1000AB00D286D28730802D02011DC284C285D286B2
:1000BB00D28730812D02012BC284C285D286D28792
:1000CB0030822D020139C284C285D286D287308319
:1000DB002D02014DC284D285C286D28730802D027B
:1000EB0001B4C284D285C286D287308122020173C9
:1000FB00C284D285C286D28730825502016BC284FC
:10010B00D285C286D2873083330201630201B102EA
:10011B0001AEC284D285C286D2873080220201BA58
:10012B00C284D285C286D2873081550201A3C28494
:10013B00D285C286D28730823F02019B0201AB027D
:10014B0001B7C284D285C286D28730832302019342
:10015B0079007532000201C379017532080201C3BF
:10016B0079027532100201C379037532180201C38B
:10017B0079047532200201C379057532280201C357
:0D018B0079067532300201C37907753238EC
:100198000201C379087532220201C3790975324810
:1001A8000201C302023802023802022302023802A4
:1001B800023802023875310F020238E531B40F7087
:1001C8000201CBE9F531B80007E532F53BE9C4FB9C
:1001D800B80107E532F53AE92BFBB80207E532F535
:1001E80039E9C4FAB8030AE532F538E92AFA02010E
:1001F800FD080202387800EC6AF4B4FF1BED6BF4DA
:10020800B4FF15C2A4BE00077E017FE10202387E5A
:10021800007F00D2A30202380202237A007B007812
:1002280000900379E0F53BF53AF539F538020238E4
:10023800758D0B758BDBD0E0D0D032C0D0C0E0BE5E
:10024800010802024D7FE1020252D0E0D0D032C054
:10025800D0C0E0BE000302027CD2A4DF17B2A3BE66
:10026800010CBE030302027C0EC2A402027C0EB281
:10027800A202027C758CFB758A8FD0E0D0D032C088
:10028800D0C0E0D2D4D2D3C2C1C2C0C2B2C2A3EDE0
:10029800FC900371BC00030202B8EEB407047400BA
:1002A8007E00937B051392C1C2C0D2C0DBF7DCEAA3
:1002B800900321EEB407047E0074002538937B0573
:0B02C8001392C1C2C0D2C0DBF7740863
:1002D3009DFC900371EEB4070474007E00937B05CC
:1002E3001392C1C2C0D2C0DBF7DCEA90031AEE93CB
:1002F3007A081392C1C2C0D2C0DAF7C2B2D2B2C274
:10030300B20E0DBD08027D00C2D3C2D4758CFF7539
:100313008AFFD0E0D0D0327FBFDFEFF7FBFD1916A5
:100323001616161619001D191D1D1D1D1800191668
:100333001E191716190019161E111E1619001D195C
:100343001515101D1D00191617191E16190019165B
:1003530017191616190019161E181E1E1E00191637
:10036300161916161900191616191E1619001F1F2D
:0E0373001F1F1F1F1F001F1F1F1F1F1F100017
:00000001FF
